:020000040800F2
:10000000A0070020C1010008DF200008351D0008FE
:10001000DD200008F503000811280008000000009A
:10002000000000000000000000000000E3200008C5
:10003000C904000800000000E1200008E5200008D5
:10004000DB010008DB010008DB010008DB01000820
:10005000DB010008DB010008DB010008DB01000810
:10006000CB040008DB010008DB01000811040008D4
:10007000DB010008DB010008DB010008DB010008F0
:10008000DB0100081D040008DB010008050400086E
:10009000F9030008DB010008DB010008DB010008B0
:1000A000DB010008C1210008DB010008DB010008BA
:1000B000DB010008DB010008DB010008DB010008B0
:1000C000DB010008DB010008DB010008DB010008A0
:1000D000DB010008DB010008DB010008DB01000890
:1000E000DB010008DB010008DB010008DB01000880
:1000F000DB010008DB010008DB010008DB01000870
:10010000DB010008DB010008DB010008DB0100085F
:10011000DB010008DB010008CD210008DB0100083D
:100120002904000835040008DB010008DB01000891
:10013000DB010008DB010008DB010008DB0100082F
:10014000DB010008DB010008DB010008DB0100081F
:10015000DB01000841040008DB0100080528000855
:10016000DB010008DB010008DB010008DB010008FF
:10017000DB010008DB010008DB01000800000000D3
:10018000DB010008DB010008DB0100082524000872
:10019000DB010008DB010008DB010008DB010008CF
:1001A0000000000000000000DB010008DFF80CD0B8
:1001B00000F07AF80048004751280008A007002006
:1001C0000648804706480047FEE7FEE7FEE7FEE7F1
:1001D000FEE7FEE7FEE7FEE7FEE7FEE76D2100082B
:1001E000AD0100082DE9F05F0546002092469B46D0
:1001F00088460646814640241BE02846414647463D
:10020000224600F041F853465A46C01A914110D395
:1002100011461846224600F028F82D1A67EB01080F
:100220004F4622460120002100F01FF817EB00097D
:100230004E41201EA4F10104DFDC484631462A4627
:100240004346BDE8F09FD2B201E000F8012B491E01
:10025000FBD270470022F6E710B513460A46044663
:100260001946FFF7F0FF204610BD202A04DB203A94
:1002700000FA02F1002070479140C2F1200320FAF9
:1002800003F3194390407047202A04DB203A21FAF7
:1002900002F00021704721FA02F3D040C2F120029F
:1002A0009140084319467047064C074D06E0E06848
:1002B00040F0010394E8070098471034AC42F6D3AD
:1002C000FFF778FFA0280008C0280008464910B5AD
:1002D0004A6822F440324A604A6843681A434A60D6
:1002E00001684A6822F480724A6001684A680369BA
:1002F00042EA03224A6001684A6822F040724A607A
:1003000001684A6883681A434A6001688A6822F46F
:1003100000628A6001688A68C3681A438A60816AD9
:100320006FF07062D14201688A6822F070628A6060
:1003300001688A680CD0836A1A438A6001688A68F7
:1003400022F040528A6001688A68C36A1A4301E059
:1003500022F040528A6001688A6822F002028A60B4
:1003600001688A68037E42EA43028A6090F820109E
:10037000002901684A680FD042F400624A600168AF
:100380004A6822F460424A6001684A68174C436A2E
:1003900004EB43331A4301E022F400624A6001682F
:1003A000CA6A22F47002CA620168CA6A838B104C5E
:1003B00004EB03531A43CA6201688A6822F400728C
:1003C0008A6001688A6890F8303042EA43228A6085
:1003D00001688A6822F480628A6001688A684069DC
:1003E00042EA8020886010BD0023014000E0FFFF4A
:1003F0000000F0FFFEE70000014800F0A4B9000093
:10040000B8000020014800F09EB90000B8000020AC
:10041000014800F085BB000080020020014800F088
:100420007FBB000020020020014800F079BB0000E3
:1004300058000020014800F073BB0000E0020020DB
:10044000014800F06DBB0000400300200168182344
:10045000CAB2103AB2FBF3F2054B6FF30901032A5B
:100460009B5CC36500D9091D816508467047000083
:100470009628000810B5014600208B698A6A4FF063
:10048000C07453B1B3F5005F15D072B1012A0CD01E
:10049000022A0AD0032A09D104E01AB1012A06D09F
:1004A000022A03D1C96AC90100D5012010BDC96A59
:1004B000A142FAD010BD002AF7D0012AF2D0022AB8
:1004C000F3D0032AF3D010BD7047042000F064BCC1
:1004D0007047000078B50024009490F83C20012A71
:1004E00019D0012280F83C200A6807230568092AF0
:1004F00013D9EE680A3A02EB420293409E43EE6043
:100500000B788A680A3B03EB43039A400368DD6873
:100510002A43DA6010E0022078BD2E6902EB420225
:1005200093409E432E610B788A6803EB43039A4005
:1005300003681D692A431A614A681F23072A13D2D8
:1005400005686E6B521E02EB820293409E436E63FF
:100550000A8893B20A79521E02EB82029340026823
:10056000556B2B43536327E005680D2A12D22E6B7F
:10057000D21F02EB820293409E432E630B790A88BE
:10058000DB1F92B203EB83039A4003681D6B2A437F
:100590001A6311E0EE6A0D3A02EB820293409E4329
:1005A000EE620B790A880D3B92B203EB83039A400B
:1005B0000368DD6A2A43DA621B4B0568194A9D42CB
:1005C0000AD10D68122D07D1556825F40005556034
:1005D000556845F48005556005689D421DD1134D51
:1005E0000B68AB4201D0112B17D1536823F4800361
:1005F0005360536843F4000353600968A9420CD167
:100600000B490C4A0968B1FBF2F101EB8101490089
:1006100000E0491E00910029FBD180F83C400020F9
:1006200078BD0000002301400020014012000010AE
:100630000000002040420F0070B504004FF000059C
:1006400003D0206C002610B107E0012070BD2046C9
:1006500000F01CF8666484F83C60206CC00610D47E
:10066000206C20F4885040F0020020642046FFF700
:100670002DFE6664206C20F0020040F00100206432
:1006800000E0012584F83C60284670BD70B586B056
:10069000064614216846FFF7DDFD2449306888428C
:1006A00042D123480025016841F48071016000684F
:1006B0001F4900F4807014390590086840F0040068
:1006C0000860086800F004000590086840F0020027
:1006D00008600868032400F00200059001208DE8FE
:1006E00031006946134800F063FB009469461248E4
:1006F000CDE9014500F05CFB114C1048C4E9000550
:100700000015A560C4E90350400060618000A0614D
:100710004011C4E907052046656200F0D1FA08B12E
:10072000FFF7D6FEB463A66306B070BD002001409B
:1007300044380240000802400004024010640240B5
:100740005800002070472DE9F05F0546006800243E
:100750004669D0F804908768D0F80CB0D0F810A0A3
:10076000D0F81880F10748D0F90714D00121816032
:10077000B80703D5284600F0BBF90CE0780702D58E
:100780004FF4006407E0380702D54FF4805402E0CC
:10079000284600F0ACF9F80516D529684FF48070AA
:1007A0008860B80503D5284600F0A4F90CE0780568
:1007B00002D544F4005407E0380502D544F48044DF
:1007C00002E0284600F095F9F80316D529684FF4A1
:1007D00080308860B80303D5284600F08DF90CE01E
:1007E000780302D544F4004407E0380302D544F40A
:1007F000803402E0284600F07EF9300707D55FEA32
:10080000CB6004D52968102044F40074C8607007D8
:100810004FF0080707D55FEA0B7004D52868C7605A
:10082000284600F05FF9B00706D52868C068800741
:1008300002D0284600F057F9700607D55FEACA6073
:1008400004D52968102044F480640861B00607D5F7
:100850005FEA0A7004D528680761284600F044F969
:10086000F00606D528680069800702D0284600F007
:100870003CF9B00308D55FEAC96005D529681020A6
:100880004860284600F032F9F00307D55FEA0970A6
:1008900004D528684760284600F02FF9300446D573
:1008A0005FEA497040D5F00504D55FEAC87001D011
:1008B00044F00104B00504D55FEA887001D544F026
:1008C0000204700504D55FEA487001D544F00404C1
:1008D000300529D518F0700F26D008F07000402898
:1008E00015D006DC102809D020280AD0302816D1CF
:1008F0000AE050280ED0602811D10EE044F0080420
:100900000DE044F010040AE044F0200407E044F055
:10091000400404E044F0800401E044F4807428685A
:10092000816921F070018161296804204860002CF0
:1009300005D0686A204368622846FFF703FFBDE8D8
:10094000F09F70B5040003D094F8200010B104E0CB
:10095000012070BD204600F081F82068016821F078
:100960000201016000F00AFB0546052604E000F0E4
:1009700005FB401B0A2811D8206840688007F6D480
:100980002068016841F00101016000F0F7FA0546B6
:100990000BE000F0F3FA401B0A2806D9606A40F425
:1009A0000030606284F82060D2E720684068C007A9
:1009B000EFD0207E0128206801683DD021F0800121
:1009C0000160607E01282068016838D021F0400174
:1009D0000160A07E01282068016833D021F0200149
:1009E0000160E07E0128206801682ED041F01001EE
:1009F0000160207F01282068016829D021F00801CA
:100A00000160607F01282068016824D021F0040182
:100A10000160D4E902010843D4E9041211430843F8
:100A20006168491E08432168C86100206062012096
:100A300084F82000002070BD41F08001C0E741F043
:100A40004001C5E741F02001CAE721F01001CFE7DE
:100A500041F00801D4E741F00401D9E710B586B0B0
:100A6000044614216846FFF7F5FB1B4920688842BD
:100A70002FD11A480021026842F00072026000681B
:100A800000F00070059015481038026842F0080226
:100A900002600068022200F0080005900320CDE902
:100AA0000210CDE900020920049069460C4800F0CC
:100AB0007FF900221146132000F0CEFA132000F037
:100AC000BDFA00221146142000F0C6FA142000F0EE
:100AD000B5FA06B010BD0000006400404038024086
:100AE000000C02407047704770477047704770476E
:100AF00070477047704770477047704790F83510DF
:100B0000022903D08021416501207047052180F82A
:100B100035100068016821F0010101600020704774
:100B20002DE9F84304464FF00009CDF800906348E2
:100B30004FF41651A56D0068B0FBF1F72E6894F8DC
:100B40005C10082000FA01F131420FD021680A68D8
:100B500052070BD50A6822F004020A6094F85C1070
:100B60008840A860606D40F00100606594F85C10FA
:100B70004FF0010808FA01F0304208D021684969B5
:100B8000090604D5A860606D40F00200606594F825
:100B90005C1004208840304208D021680968890729
:100BA00004D5A860606D40F00400606594F85C10A6
:100BB00010208840304218D021680968090714D5F0
:100BC000A86020680168490304D50068000308D5BF
:100BD000A16C07E00168C90503D4016821F0080190
:100BE0000160216C09B12046884794F85C102020F0
:100BF0008840304231D021680968C9062DD5A860E7
:100C000094F8350005282068016806D0490347D5C7
:100C1000006800031DD4616C1CE021F01601016026
:100C20002068416921F080014161206C08B9A06C05
:100C300020B12068016821F00801016094F85C107F
:100C40003F208840A86084F8349084F83580216D76
:100C50001FE0E16B09B120468847606D00282BD06A
:100C6000606DC00714D0052084F835002068016845
:100C700021F0010101600098401C0090B84203D8A7
:100C800020680068C007F6D184F8349084F8358075
:100C9000E16C002910D001B02046BDE8F0430847C0
:100CA0000168C905D5D4016821F01001016084F8FC
:100CB000349084F83580CCE7BDE8F883000000204C
:100CC0002DE9F041044600F059F906465CB10025D3
:100CD00084F83450022084F835002068016821F03F
:100CE000010101600DE00120BDE8F08100F046F94E
:100CF000801B052805D920206065032084F8350075
:100D0000F2E720680068C007F0D122681168204827
:100D10000140D4E901031843D4E9033633431843AF
:100D200063691843A3691843E3691843236A1843A6
:100D30000843616A042903D1D4E90B13194308431A
:100D4000106020684069666A20F0070130460E4353
:100D5000012704280CD1A06A0643E06A40B120466E
:100D6000FFF788FB20B14020606584F83570BAE752
:100D7000206846612046FFF769FB94F85C203F211C
:100D800091408160656584F835700020ACE7000013
:100D90003F8010F070470000044910B50A68024215
:100DA00002D00860FFF7F6FF10BD0000143C0140C0
:100DB0002DE9F84FDFF890B100224FF001084FF015
:100DC000030A4FF00F090BF1040E00BF0B6808FA7D
:100DD00002F42340A3426ED14D68022D01D0122DA2
:100DE0000ED1D50800EB850CDCF820505607F70E25
:100DF00009FA07F6B5430E69BE402E43CCF82060D1
:100E0000066855000F790AFA05FC07F0030726EA81
:100E10000C06AF40374307604E68012E05D0022E06
:100E200003D0112E01D0122E0ED18768CE6827EA8A
:100E30000C07AE403E4386604668A6430C79C4F377
:100E40000014944034434460C4688E6824EA0C045F
:100E5000AE402643C6604C68E4006FD53B4C256825
:100E600045F480452560246822F0030504F480449D
:100E70000094374C2E19D6F8084895072F0F09FA19
:100E800007F5AC43334DA84201D100252EE0324D89
:100E9000A84201D1012529E0304DA84201D1022507
:100EA00024E02F4DA84201D103251FE02D4DA8427B
:100EB00002D104251AE041E02B4DA84201D10525BD
:100EC00014E02A4DA84201D106250FE0284DA84282
:100ED00001D107250AE0274DA84201D1082505E0E8
:100EE000254DA84201D1092500E00A25BD40254332
:100EF000C6F80858DBF800405D464E689C43F60390
:100F000000D51C432C60DEF8004075464E689C43BB
:100F1000B60300D51C432C600B4D08352C684E6879
:100F20009C43F60200D51C432C60074D0C352C6801
:100F30004E689C43B60200D51C432C60521C102AFC
:100F4000FFF444AFBDE8F88F003C01404438024054
:100F5000003001400000024000040240000802404E
:100F6000000C024000100240001402400018024031
:100F7000001C02400020024000240240014880681A
:100F80007047000004000020024881680278114484
:100F900081607047040000200B4810B5016841F4DF
:100FA00000710160016841F480610160016841F4F1
:100FB00080710160032000F06FF8002000F006F857
:100FC00000F024F8002010BD003C024070B50D4D2B
:100FD00004464FF47A712878B1FBF0F00A490968A9
:100FE000B1FBF0F000F0E2FA48B9102C07D2002271
:100FF0002146501E00F030F800206C6070BD0120CA
:1010000070BD000004000020000000200A4808B560
:10101000016841F480410160006800F48040009064
:101020000548001F016841F080510160006800F030
:101030008050009008BD000044380240002809DBC1
:1010400000F01F02012191404009800000F1E020E2
:10105000C0F8001170470000F0B40E4B1B680C463E
:10106000C3F30223C3F10705042D00D90425191D7C
:10107000072901D2002300E0DB1E012606FA05F154
:10108000491E214099409E40761E16403143F0BCD7
:1010900001F0BFBB0CED00E0064900F00702086854
:1010A0004FF6FF03184040EA0220034A104308604D
:1010B000704700000CED00E00000FA052DE9F04754
:1010C0000E46050065D0DFF81481D8F80000F7B2AD
:1010D00000F00F00B04207D288F80070D8F8000086
:1010E00000F00F00B04254D128683D4C810712D562
:1010F000400703D5206840F4E050206028780007BE
:1011000003D5206840F4604020602068A96820F082
:10111000F000084320602878C0072DD03049686867
:101120000839012812D0022813D0032811D00968E9
:10113000890700292DDA216821F00301014321608C
:10114000FFF71CFF814641F2883A0EE009688903E7
:10115000EFE709688901ECE7FFF710FFA0EB090151
:10116000514502D90320BDE8F0872068696800F086
:101170000C00B0EB810FEFD1D8F80010404601F021
:101180000F01B14207D90770006800F00F00B042AC
:1011900001D00120E7E72878400705D52068E968F5
:1011A00020F4E050084320602878000706D5206826
:1011B000296920F4604040EAC100206000F036F860
:1011C0002168084AC1F30311515CC8400649086010
:1011D0000020FFF7FBFE0020C5E70000003C0240B6
:1011E000083802407E280008000000200448054915
:1011F00000680968044AC1F38221515CC840704705
:1012000000000020083802408E28000804480549E4
:1012100000680968044AC1F34231515CC840704714
:1012200000000020083802408E280008154810B53C
:10123000006810F00C02144813D01449042A0FD08F
:10124000082A0ED10F4C241F2268236802F03F02A7
:101250005B0207D52068C0F38810A0FB010106E0FF
:10126000084610BD2168C1F38811A1FB00010023CD
:10127000FEF7B8FF2168C1F30141491C4900B0FBEA
:10128000F1F010BD083802400024F400001BB70044
:101290002DE9F84F050076D02878DFF8F8B2BE4C7B
:1012A000C00749D0DBF800105846C1F3810101297D
:1012B00008D00068C0F3810002280AD1201D006810
:1012C000400206D52068800336D568680028E2D041
:1012D00032E06868B0F5803F10D0B0F5A02F2068EC
:1012E00010D020F480302060206820F4802020601E
:1012F0006868A0B1FFF742FE06460CE0206840F4A3
:101300008030F4E740F480202060F7E7FFF736FEF6
:10131000801B642873D820688003F7D50CE0FFF7A2
:101320002DFE064605E000BFFFF728FE801B64285F
:10133000F0D820688003F7D42878DFF8608280072F
:101340004FF000093ED5DBF80010584611F00C0FA5
:1013500009D00068C0F3810002280BD18D48001F1E
:101360000068400206D42068800715D5E868012887
:1013700009D111E0E868B8B10120C8F80000FFF712
:10138000FDFD064605E002E1FFF7F8FD801B02289F
:10139000C0D820688007F7D52068296920F0F800B8
:1013A00040EAC10020600DE0C8F80090FFF7E6FDBC
:1013B000064604E0FFF7E2FD801B02281FD82068E4
:1013C0008007F7D42878000722D5724E74486969DF
:1013D0006C3671B101210160FFF7D0FD074604E0D2
:1013E000FFF7CCFDC01B022809D830688007F7D56D
:1013F0000EE0C0F80090FFF7C1FD074605E083E06E
:10140000FFF7BCFDC01B02287ED830688007F7D4E8
:101410002878400768D5DFF87CA100270AF1380A50
:10142000DAF80000C0000BD4DAF8001041F0805167
:10143000CAF80010DAF80000012700F08050009090
:10144000584E3068C00510D4306840F48070306069
:10145000FFF794FD009005E0FFF790FD0099401A1A
:10146000022851D83068C005F6D54A4EA8686836BB
:1014700001280FD00528306810D020F0010030601E
:10148000306820F004003060A868B8B1FFF776FD3E
:1014900000900FE0306840F00100F4E740F00400F5
:1014A0003060F7E7FFF76AFD0099411A41F2883092
:1014B000814264D830688007F4D50EE0FFF75EFD06
:1014C000009007E0FFF75AFD0099411A41F2883079
:1014D000814254D830688007F4D42FB1DAF8001074
:1014E00021F08051CAF80010A869C0B3DBF80010E1
:1014F000C1F3810102294AD00228484607D0C8F822
:101500006000FFF73BFD00E039E005463AE0474662
:10151000C8F86000FFF732FD064604E0FFF72EFD35
:10152000801B02282BD820688001F7D4D5E9070159
:101530000843A96A1C4A490802EB01416A6A41EA68
:101540008211084395F82C1040EA01611148001FF0
:10155000016001203866FFF711FD054605E014E043
:10156000FFF70CFD401B022809D820688001F7D541
:101570000BE000BFFFF702FD401B022802D9032049
:10158000BDE8F88F20688001F4D40020F8E701203E
:10159000F6E70000083802400038024000004742E9
:1015A000800E4742007000400000FFFF10B5401E53
:1015B000B0F1807F01D3012010BD4FF0E0246061C5
:1015C0000F21601701F025F90020A061072020619C
:1015D000002010BD7047704710B590F83C20012ADC
:1015E00022D0012280F83C20CA688C6822F4407224
:1015F00022434C6822F4806222430C6822F4006289
:1016000022430C6922F4805222434C6922F4005296
:101610002243C969002322F480420A4301684A64D4
:1016200080F83C30002010BD022010BD70B590F84D
:101630003C20012A19D0012400F83C4F02224270BC
:1016400050F83C3C5A689D6822F070060A68496868
:10165000324325F0800529435A6050F83C2C9160B4
:10166000447000210170084670BD022070BD10B5A5
:10167000040003D094F83D0010B107E0012010BD34
:10168000002084F83C00204600F00CF8022084F88A
:101690003D00211D206800F09FFD012084F83D00E1
:1016A000002010BD08B50068154988420FD11548C3
:1016B000016841F0100101600068002200F0100094
:1016C000009011463620FFF7C7FC362012E00E4985
:1016D000884213D10B48001D016841F400310160BC
:1016E0000068002200F40030009011461920FFF736
:1016F000B3FC1920BDE80840FFF7A0BC08BD0000FE
:10170000001000404038024000440140704770B56E
:101710000446006801694FF00005C943890715D4E4
:10172000C168C943890711D4E91E016101202077EE
:10173000206880698007204602D0FFF7E7FF04E0B9
:1017400000F0C2F8204600F057F9257720680169BB
:10175000C943490717D4C168C943490713D46FF077
:1017600004010161022020772068806910F4407F25
:10177000204602D0FFF7CAFF04E000F0A5F820469B
:1017800000F03AF9257720680169C943090716D4A2
:10179000C168C943090712D46FF008010161042030
:1017A00020772068C0698007204602D0FFF7AEFF8F
:1017B00004E000F089F8204600F01EF92577206843
:1017C0000169C943C90617D4C168C943C90613D4FE
:1017D0006FF010010161082020772068C06910F4C3
:1017E000407F204602D0FFF791FF04E000F06CF844
:1017F000204600F001F9257720680169C943C9072F
:1018000008D1C168C943C90704D1891E01612046B6
:1018100000F0F3F820680169C943090609D4C168DA
:10182000C943090605D46FF0800101612046FFF726
:10183000D1FE20680169C943490609D4C168C9437A
:10184000490605D46FF040010161204600F0D6F84A
:1018500020680169C94389060BD4C168C943890658
:1018600007D46FF0200101612046BDE87040FFF70A
:10187000B2BE70BD10B586B0044614216846FEF7AE
:10188000E9FC0E492068884215D10D480021026804
:1018900042F480720260006800F4807005900420B9
:1018A00000900220CDE901010320CDE90310694633
:1018B0000448FFF77DFA06B010BD000000040140A7
:1018C0003038024000200240704770B5044690F85E
:1018D0003C000D4601280DD0012684F83C60022012
:1018E00084F83D0042B1042A18D0082A2AD00C2AD4
:1018F0004DD139E0022070BD206800F0D1FC206895
:10190000816941F0080181612068816921F0040149
:101910008161206881692A69114311E0206800F023
:10192000EFFC2068816941F4006181612068816970
:1019300021F480618161206881692A6941EA02217C
:10194000816124E0206800F011FD2068C16941F048
:101950000801C1612068C16921F00401C1612068EA
:10196000C1692A69114311E0206800F033FD206845
:10197000C16941F40061C1612068C16921F48061DD
:10198000C1612068C1692A6941EA0221C16184F804
:101990003D60002084F83C0070BD10B5040003D009
:1019A00094F83D0010B107E0012010BD002084F83C
:1019B0003C00204600F00CF8022084F83D00211D78
:1019C000206800F009FC012084F83D00002010BDD3
:1019D00008B500680649884208D10648016841F008
:1019E00002010160006800F00200009008BD0000E4
:1019F0000004014044380240704770477047704708
:101A000070B5026804461068D168536910F00F0F72
:101A100051D003F0010501F4907635435DD0C20743
:101A200005D0CA0503D5E26B42F00102E26342072A
:101A300005D5DA0703D0E26B42F00202E2638207C7
:101A400005D5DA0703D0E26B42F00402E263020735
:101A500005D5DA0703D0E26B42F00802E263E26BDD
:101A6000002A34D0800604D5880602D5204600F02E
:101A7000F5FC20684069E16BC0F3801001F00801BB
:101A80000143204624D000F0DBFC20684169490670
:101A90001AD5416921F040014161606BA0B11B4939
:101AA0000165606BFFF72AF8002810D0606B016DAC
:101AB000BDE87040084783060FD58B060DD520463C
:101AC000BDE8704000F0CABC2046FFF798FF70BD2B
:101AD000FFF795FF0020E06370BD030606D50B06F7
:101AE00004D52046BDE8704000F05ABE4006F3D54C
:101AF0004806F1D5D168204621F04001D16020216F
:101B000084F8391000F015F970BD00003124000888
:101B100070B5040004D094F83900002510B106E037
:101B2000012070BD84F83850204600F023F82420AE
:101B300084F839002068C16821F40051C160204652
:101B400000F0D8FC2068016921F49041016120680F
:101B5000416921F02A0141612068C16841F40051C6
:101B6000C160E563202084F8390084F83A00002041
:101B700070BD00002DE9F04786B004461421684688
:101B8000FEF768FBDFF88481D4F800C060480321C9
:101B900002220123082700254FF0400A4FF020665B
:101BA0004FF48069C44552D1DFF864C10CF1100CC8
:101BB000DCF8008048F00048CCF80080DCF800C079
:101BC0000CF0004CCDF814C0D0F800C04CF0100C54
:101BD000C0F800C0006800F0100005908DE80E000D
:101BE000CDE9031769464B48FFF7E2F84B4F4A48E7
:101BF000C8463860C7E90165C7E903597D61BD6121
:101C0000FD613D6238467D62FFF75AF808B1FEF784
:101C10005FFC6763BC63414F3F4860379038C7E95A
:101C200003587D61BD61FD613D627D6287E84104CD
:101C30003846FFF745F808B1FEF74AFC2763002253
:101C400011465320BC63FFF707FA532058E0DFF832
:101C5000D080C44556D1DFF8B8C00CF1140CDCF8C4
:101C6000008048F02008CCF80080DCF800C00CF0C0
:101C7000200CCDF814C0D0F800C04CF0400CC0F8D7
:101C800000C00068CDE9023100F0400005904FF43B
:101C90008440CDE90002049769462248FFF788F89E
:101CA0001E4F2148C037C8463860C7E90165C7E9FB
:101CB00003597D61BD61FD613D6238467D62FEF77D
:101CC000FFFF08B1FEF704FC6763BC63174F1648BB
:101CD000C7E903587D61BD61FD613D6278307D6279
:101CE00087E841043846FEF7EBFF08B1FEF7F0FB4A
:101CF0002763002211464720BC63FFF7ADF9472058
:101D0000FFF79CF906B0BDE8F0870000007C0040BA
:101D10003038024000100240A06002402002002043
:101D200000140140001802402864024040030020D3
:101D300070477047FEE700007FB5002126480091FC
:101D400001910291234A0391026001244FF48032F1
:101D50000461C0E90121047680F820101F4AC0E91F
:101D60000A210425C561C16080F830404461FEF756
:101D700063FC08B1FEF7ACFB1120CDE9000403249D
:101D8000694615480294FEF7A5FB08B1FEF7A0FBD3
:101D9000082000900220019069460F48FEF79AFB48
:101DA00008B1FEF795FB0920CDE9000469460A4811
:101DB000FEF790FB08B1FEF78BFB0A20CDE900058A
:101DC00069460548FEF786FB002801D0FEF780FB38
:101DD0007FBD000000200140100000200100000F26
:101DE0000F4810B50D4901600321416000214FF4F7
:101DF00000228160C0E903124FF440124261017673
:101E000041768176C17601774177FEF79AFD002809
:101E100003D0BDE81040FEF75BBB10BD006400407E
:101E2000B80000201D4808B5016841F48001016038
:101E3000016801F480010091016841F40011016022
:101E40000068002200F40010009011460B20FFF7FC
:101E500003F90B20FFF7F2F8002211461120FFF7DB
:101E6000FBF81120FFF7EAF8002211463820FFF7AF
:101E7000F3F83820FFF7E2F8002211463920FFF787
:101E8000EBF83920FFF7DAF8002211464520FFF77A
:101E9000E3F8BDE808404520FFF7D0B830380240ED
:101EA00000B587B014216846FEF7D4F92648002112
:101EB000026842F010020260026802F0100205920D
:101EC000026842F040020260026802F0400205929D
:101ED000026842F008020260026802F008020592FD
:101EE000026842F480720260026802F48072059215
:101EF000026842F080020260026802F080020592ED
:101F0000026842F004020260026802F004020592D4
:101F1000026842F002020260006800F002000590D0
:101F2000042000900948CDE9010169460848FEF700
:101F30003FFF002211460820FFF78EF80820FFF728
:101F40007DF807B000BD00003038024000001110DD
:101F5000000402400B4810B509490160532141605B
:101F600000214FF47A72C0E9021201618161FFF72A
:101F70007EFB002803D0BDE81040FEF7A9BA10BDD3
:101F800000440140600100201CB500240E4800946C
:101F90000C49019401601321C0E901142A218461D4
:101FA000C160FFF764FB08B1FEF792FA009469463E
:101FB00005480194FFF73AFB002801D0FEF788FAA4
:101FC0001CBD000000100040E000002010B592B0E1
:101FD00000240F941C2108A81094FEF73BF920213F
:101FE0006846FEF737F920481E4901600321C0E921
:101FF000011441F26801C0E9031444618461FFF7F0
:10200000CCFC08B1FEF764FA0F940FA9164810949F
:10201000FFF70CFB08B1FEF75BFA6020CDE908047E
:102020000A940C940D940C2208A90F480E94FFF703
:102030004CFC08B1FEF74CFA00944FF40050CDE987
:102040000440029401940394694607480794FFF7FB
:10205000C3FA08B1FEF73CFA0348FFF70BFC12B0D5
:1020600010BD000000040140200100200C4810B504
:102070000A4901604FF4E1314160002181600C2286
:10208000C160C0E904128161C161FFF741FD002810
:1020900003D0BDE81040FEF71BBA10BD007C004025
:1020A000A00100200C4810B50A4901604FF4E1314D
:1020B0004160002181600C22C160C0E9041281618D
:1020C000C161FFF725FD002803D0BDE81040FEF7F1
:1020D000FFB910BD00140140E0010020FEE7704789
:1020E00070477047FEF750BF30B593B03021684657
:1020F000FEF7B0F814210CA8FEF7ACF8194800253B
:10210000016841F080510160006800F0805011903A
:102110001548016841F4404101600068022400F460
:102120004040119001200090000401908001CDE911
:10213000064006200890A820CDE9090404200B9051
:102140006846FFF7A5F80CA90F2081E831004FF48D
:10215000A0500F90E002109005210CA8FEF7AEFFF2
:1021600013B030BD40380240007000401048016894
:1021700041F4700101600F48016841F00101016004
:102180000C4A00210832116002680B4B1A400260B1
:10219000031D0A4A1A60026822F480220260054880
:1021A0000C30016002495806803908607047000011
:1021B00088ED00E000380240FFFFF6FE10300024FA
:1021C0000148FFF7A4BA0000600100200148FFF7B2
:1021D0009EBA0000E0000020F0B50268254C264DB4
:1021E000264E274F274B4FF0804CA04209D0604528
:1021F00007D0A84205D0B04203D0B84201D09842DF
:1022000004D122F0700E4A6842EA0E02A0421BD0AE
:10221000604519D0A84217D0B04215D0B84213D0AB
:10222000984211D0184DA8420ED0184DA8420BD09C
:10223000174DA84208D0174DA84205D0164DA84208
:1022400002D0164DA84203D122F44075CA682A4331
:102250004D6922F080022A4302608A68C2620A68DD
:102260008262A04201D0984201D109690163012133
:102270004161F0BD00000140000400400008004042
:10228000000C0040000401400040014000440140B7
:102290000048014000180040001C004000200040A1
:1022A000F0B5026A22F001020262036A42688469A0
:1022B000124E24F073050C682C4323F002058B6842
:1022C0002B430D4DA84201D0B04205D123F00807A1
:1022D000CB683B4323F00403A84201D0B04205D1B0
:1022E0004D6922F4407215438A692A434260846131
:1022F000496841630362F0BD0000014000040140F1
:10230000F0B5026A22F010020262026A4368846930
:102310000D6824F4E64444EA05248D6822F0200286
:1023200042EA05120F4D104EA84201D0B04206D12C
:10233000CF6822F0800242EA071222F04002A8424F
:1023400001D0B04207D14D6923F4406343EA8503CD
:102350008D6943EA85034360846149688163026251
:10236000F0BD00000000014000040140F0B5026A29
:1023700022F480720262026A4368C46922F4007225
:1023800024F073050C68124E2C438D6842EA052236
:102390000E4DA84201D0B04206D1CF6822F40062AF
:1023A00042EA072222F48062A84201D0B04207D15B
:1023B0004D6923F4405343EA05138D6943EA05133D
:1023C0004360C4614968C1630262F0BD000001401E
:1023D0000004014030B5026A22F480520262046AAD
:1023E0004268C3690D6823F4E64343EA05238D6818
:1023F00024F4005444EA0534084DA84202D0084DA4
:10240000A84204D14D6922F4804242EA851242601A
:10241000C36149680164046230BD000000000140EE
:10242000000401400148FFF7EBBA0000A0010020C2
:1024300010B5806B0021C185C184FFF7E0FA10BDA3
:102440000168CA6822F49072CA6001684A6922F081
:1024500001024A61202180F83A10704710B590F8C7
:102460003A10222901D0022010BD8168B1F5805FA9
:1024700011D00169002901681FD0496801F07F036C
:10248000816A4A1C82620B70C18D491E0904090CC5
:10249000C18518D02BE00269816A002A026852685F
:1024A00005D0D2B20A80816A491C8162ECE7C2F38E
:1024B00008020A80816A891CF7E74A68816A4B1C16
:1024C00083620A70E0E70168CA6822F02002CA60ED
:1024D0000168CA6822F48072CA6001684A6922F001
:1024E00001024A61202180F83A10FFF721FC002008
:1024F00010BD00002DE9F041044600680169E26862
:1025000021F44051114301612169A068E269084347
:102510006169114322680843D16849F20C63994309
:102520000143D16020684169A26921F440711143DF
:102530004161E2696425B2F5004F974897492268E6
:102540004FF032083FD08A4201D082427CD1FEF760
:102550005DFE00EBC00101EB001061688900B0FB7B
:10256000F1F6FEF753FE00EBC00101EB00106168CD
:102570008900B0FBF1F0B0FBF5F06FF018014843B3
:1025800006EB800108EB0110B0FBF5F000F0F0065F
:10259000FEF73CFE00EBC00101EB00106168890012
:1025A000B0FBF1F0B0FBF5F006EB0016FEF72EFEE7
:1025B00000EBC00101EB001061688900B0FBF1F78E
:1025C000FEF724FED2E08A4201D082423DD1FEF7DE
:1025D0001DFE00EBC00101EB001061684900B0FB7B
:1025E000F1F0B0FBF5F00601FEF710FE00EBC001C4
:1025F00001EB001061684900B0FBF1F7FEF706FE41
:1026000000EBC00101EB001061684900B0FBF1F084
:10261000B0FBF5F06FF01801484307EB800108EBC1
:10262000C100B0FBF5F000F0F80006EB4006FEF745
:10263000EDFD00EBC00101EB001061684900B0FB4B
:10264000F1F7FEF7E3FD3CE055E0FEF7CFFD00EBD0
:10265000C00101EB001061684900B0FBF1F0B0FB74
:10266000F5F00601FEF7C2FD00EBC00101EB001022
:1026700061684900B0FBF1F7FEF7B8FD00EBC0015F
:1026800001EB001061684900B0FBF1F0B0FBF5F020
:102690006FF01801484307EB800108EBC100B0FB65
:1026A000F5F000F0F80006EB4006FEF79FFD00EBAA
:1026B000C00101EB001061684900B0FBF1F7FEF7C3
:1026C00095FD00EBC00101EB001061684900B0FB13
:1026D000F1F0B0FBF5F06FF01801484307EB800113
:1026E00008EBC100B0FBF5F000F0070021683044B2
:1026F0008860BDE8F081FEF779FD00EBC00101EBD9
:10270000001061688900B0FBF1F6FEF76FFD00EB89
:10271000C00101EB001061688900B0FBF1F0B0FB73
:10272000F5F06FF01801484306EB800108EB01104B
:10273000B0FBF5F000F0F006FEF758FD00EBC0012D
:1027400001EB001061688900B0FBF1F0B0FBF5F01F
:1027500006EB0016FEF74AFD00EBC00101EB00108E
:1027600061688900B0FBF1F7FEF740FD00EBC001A6
:1027700001EB001061688900B0FBF1F0B0FBF5F0EF
:102780006FF01801484307EB800108EB0110B0FB24
:10279000F5F000F00F00A9E700140140001001401F
:1027A00090F83910212901D0022070478168B1F5D5
:1027B000805F016A0BD04A1C02620268097851608E
:1027C000C18C491E0904090CC1840ED017E0098888
:1027D0000268C1F30801516001690029016A02D051
:1027E000491C0162ECE7891CFBE70168CA6822F01A
:1027F0008002CA600068C16841F04001C1600020E9
:10280000704700000148FFF7FBB80000E00100201E
:10281000FEE70907090E002804DB00F1E02080F83C
:102820000014704700F00F0000F1E02080F8141D44
:10283000704702E008C8121F08C1002AFAD1704789
:102840007047002001E001C1121F002AFBD1704730
:10285000FEF7A2FBFFF748FCFFF722FBFFF7E2FAC7
:10286000FFF792FBFFF7BCFAFFF7B0FBFFF772FB35
:10287000FFF718FCFFF760FAFFF7F8FBFEE7000030
:102880000000000000000102030406070809000020
:1028900000000102030400061016000610160000D6
:1028A000C0280008000000201000000032280008A6
:1028B000D0280008100000209007000042280008DF
:1028C0000024F400010000001000000000000000DF
:04000005080001AD41
:00000001FF
